{
  "_format": "hh-sol-artifact-1",
  "contractName": "Marketplace",
  "sourceName": "contracts/Marketplace.sol",
  "abi": [
    {
      "anonymous": false,
      "inputs": [
        {
          "indexed": false,
          "internalType": "address",
          "name": "to",
          "type": "address"
        },
        {
          "indexed": false,
          "internalType": "address",
          "name": "from",
          "type": "address"
        },
        {
          "indexed": false,
          "internalType": "contract TicketSFT",
          "name": "collection",
          "type": "address"
        },
        {
          "indexed": false,
          "internalType": "uint256",
          "name": "id",
          "type": "uint256"
        }
      ],
      "name": "Buy",
      "type": "event"
    },
    {
      "anonymous": false,
      "inputs": [
        {
          "indexed": false,
          "internalType": "address",
          "name": "from",
          "type": "address"
        },
        {
          "indexed": false,
          "internalType": "contract TicketSFT",
          "name": "collection",
          "type": "address"
        },
        {
          "indexed": false,
          "internalType": "uint256",
          "name": "id",
          "type": "uint256"
        },
        {
          "indexed": false,
          "internalType": "uint256",
          "name": "price",
          "type": "uint256"
        }
      ],
      "name": "Deposit",
      "type": "event"
    },
    {
      "anonymous": false,
      "inputs": [
        {
          "indexed": false,
          "internalType": "address",
          "name": "to",
          "type": "address"
        },
        {
          "indexed": false,
          "internalType": "uint256",
          "name": "amount",
          "type": "uint256"
        }
      ],
      "name": "WithdrawBalance",
      "type": "event"
    },
    {
      "inputs": [
        {
          "internalType": "address",
          "name": "",
          "type": "address"
        }
      ],
      "name": "balance",
      "outputs": [
        {
          "internalType": "uint256",
          "name": "",
          "type": "uint256"
        }
      ],
      "stateMutability": "view",
      "type": "function"
    },
    {
      "inputs": [
        {
          "internalType": "contract TicketSFT",
          "name": "_collection",
          "type": "address"
        },
        {
          "internalType": "uint256",
          "name": "_id",
          "type": "uint256"
        }
      ],
      "name": "buy",
      "outputs": [],
      "stateMutability": "payable",
      "type": "function"
    },
    {
      "inputs": [
        {
          "internalType": "contract TicketSFT",
          "name": "_collection",
          "type": "address"
        },
        {
          "internalType": "address",
          "name": "_from",
          "type": "address"
        },
        {
          "internalType": "uint256",
          "name": "_id",
          "type": "uint256"
        }
      ],
      "name": "deposit",
      "outputs": [],
      "stateMutability": "nonpayable",
      "type": "function"
    },
    {
      "inputs": [
        {
          "internalType": "address",
          "name": "_collection",
          "type": "address"
        },
        {
          "internalType": "uint256",
          "name": "_id",
          "type": "uint256"
        }
      ],
      "name": "getSupply",
      "outputs": [
        {
          "internalType": "uint256",
          "name": "available",
          "type": "uint256"
        },
        {
          "internalType": "uint256",
          "name": "price",
          "type": "uint256"
        }
      ],
      "stateMutability": "view",
      "type": "function"
    },
    {
      "inputs": [],
      "name": "withdrawBalance",
      "outputs": [],
      "stateMutability": "nonpayable",
      "type": "function"
    }
  ],
  "bytecode": "0x608060405234801561001057600080fd5b5060016000556107ff806100256000396000f3fe60806040526004361061004a5760003560e01c8063522740371461004f5780635fd8c710146100b35780638340f549146100ca578063cce7ec13146100ea578063e3d670d7146100fd575b600080fd5b34801561005b57600080fd5b5061009961006a3660046106cc565b6001600160a01b0391909116600090815260016020818152604080842094845293905291902080549101549091565b604080519283526020830191909152015b60405180910390f35b3480156100bf57600080fd5b506100c8610138565b005b3480156100d657600080fd5b506100c86100e53660046106f8565b61027d565b6100c86100f83660046106cc565b610403565b34801561010957600080fd5b5061012a610118366004610739565b60026020526000908152604090205481565b6040519081526020016100aa565b61014061065b565b336000908152600260205260409020546101975760405162461bcd60e51b81526020600482015260136024820152724e6f7468696e6720746f20776974686472617760681b60448201526064015b60405180910390fd5b33600081815260026020526040808220805490839055905190929083908381818185875af1925050503d80600081146101ec576040519150601f19603f3d011682016040523d82523d6000602084013e6101f1565b606091505b50509050806102365760405162461bcd60e51b81526020600482015260116024820152704572726f72206f6e20776974686472617760781b604482015260640161018e565b60408051338152602081018490527f0875ab8e60d8ffe0781ba5e1d1adadeb6250bc1bee87d3094cc6ac4eb9f88512910160405180910390a1505061027b6001600055565b565b6001600160a01b038381166000818152600160208181526040808420878552825280842080549384018155845292200180546001600160a01b03191693861693909317909255905163e44d311b60e01b81526004810183905263e44d311b90602401602060405180830381865afa1580156102fc573d6000803e3d6000fd5b505050506040513d601f19601f82011682018060405250810190610320919061075d565b6001600160a01b0384166000818152600160208181526040808420878552909152918290200192909255905163e44d311b60e01b8152600481018390527fdcbc1c05240f31ff3ad067ef1ee35ce4997762752e3a095284754544f4c709d79184918691859163e44d311b90602401602060405180830381865afa1580156103ab573d6000803e3d6000fd5b505050506040513d601f19601f820116820180604052508101906103cf919061075d565b604080516001600160a01b0395861681529490931660208501529183015260608201526080015b60405180910390a1505050565b6001600160a01b03821660009081526001602090815260408083208484529091529020546104635760405162461bcd60e51b815260206004820152600d60248201526c4e6f7420617661696c61626c6560981b604482015260640161018e565b6001600160a01b0382166000908152600160208181526040808420858552909152909120015434146104d75760405162461bcd60e51b815260206004820152601760248201527f4e6f7420656e6f756768206d6f6e65792073656e646564000000000000000000604482015260640161018e565b6001600160a01b038216600090815260016020818152604080842085855290915282208054909161050791610776565b815481106105175761051761079d565b6000918252602082200154604051637921219560e11b81526001600160a01b0391821660048201819052336024830152604482018690526001606483015260a0608483015260a482019390935291925084169063f242432a9060c401600060405180830381600087803b15801561058d57600080fd5b505af11580156105a1573d6000803e3d6000fd5b505050506001600160a01b038316600090815260016020908152604080832085845290915290208054806105d7576105d76107b3565b60008281526020808220600019908401810180546001600160a01b03191690559092019092556001600160a01b0383811680845260028352604093849020349055835133815292830152851691810191909152606081018390527f647a7ac62aec44ae24e7a95fb2408021e29bec3b80dbd2f15fb07f9d79b90114906080016103f6565b6002600054036106ad5760405162461bcd60e51b815260206004820152601f60248201527f5265656e7472616e637947756172643a207265656e7472616e742063616c6c00604482015260640161018e565b6002600055565b6001600160a01b03811681146106c957600080fd5b50565b600080604083850312156106df57600080fd5b82356106ea816106b4565b946020939093013593505050565b60008060006060848603121561070d57600080fd5b8335610718816106b4565b92506020840135610728816106b4565b929592945050506040919091013590565b60006020828403121561074b57600080fd5b8135610756816106b4565b9392505050565b60006020828403121561076f57600080fd5b5051919050565b8181038181111561079757634e487b7160e01b600052601160045260246000fd5b92915050565b634e487b7160e01b600052603260045260246000fd5b634e487b7160e01b600052603160045260246000fdfea2646970667358221220ccf32ce4074c27ce9a958cecf9e5409c48b240db3fcad217e5593791d45307fa64736f6c63430008110033",
  "linkReferences": {},
  "deployedLinkReferences": {}
}