{
  "_format": "hh-sol-artifact-1",
  "contractName": "TicketFactory",
  "sourceName": "contracts/TicketFactory.sol",
  "abi": [
    {
      "anonymous": false,
      "inputs": [
        {
          "indexed": false,
          "internalType": "address",
          "name": "owner",
          "type": "address"
        },
        {
          "indexed": false,
          "internalType": "address",
          "name": "collectionAddress",
          "type": "address"
        },
        {
          "indexed": false,
          "internalType": "string",
          "name": "name",
          "type": "string"
        }
      ],
      "name": "TicketCreated",
      "type": "event"
    },
    {
      "inputs": [
        {
          "internalType": "string",
          "name": "_eventName",
          "type": "string"
        },
        {
          "internalType": "string",
          "name": "_uri",
          "type": "string"
        },
        {
          "internalType": "uint256[]",
          "name": "_ticketPrices",
          "type": "uint256[]"
        },
        {
          "internalType": "uint16[]",
          "name": "_availableTickets",
          "type": "uint16[]"
        }
      ],
      "name": "deployTicket",
      "outputs": [
        {
          "internalType": "address",
          "name": "",
          "type": "address"
        }
      ],
      "stateMutability": "nonpayable",
      "type": "function"
    },
    {
      "inputs": [
        {
          "internalType": "address",
          "name": "_addr",
          "type": "address"
        }
      ],
      "name": "getCollection",
      "outputs": [
        {
          "internalType": "string",
          "name": "eventName",
          "type": "string"
        },
        {
          "internalType": "string",
          "name": "uri",
          "type": "string"
        },
        {
          "internalType": "uint256",
          "name": "availableTicketsLength",
          "type": "uint256"
        }
      ],
      "stateMutability": "view",
      "type": "function"
    },
    {
      "inputs": [],
      "name": "getSftCollectionsLength",
      "outputs": [
        {
          "internalType": "uint256",
          "name": "",
          "type": "uint256"
        }
      ],
      "stateMutability": "view",
      "type": "function"
    },
    {
      "inputs": [
        {
          "internalType": "uint256",
          "name": "",
          "type": "uint256"
        }
      ],
      "name": "indexToOwner",
      "outputs": [
        {
          "internalType": "address",
          "name": "",
          "type": "address"
        }
      ],
      "stateMutability": "view",
      "type": "function"
    },
    {
      "inputs": [
        {
          "internalType": "uint256",
          "name": "",
          "type": "uint256"
        }
      ],
      "name": "sftCollections",
      "outputs": [
        {
          "internalType": "contract TicketSFT",
          "name": "",
          "type": "address"
        }
      ],
      "stateMutability": "view",
      "type": "function"
    }
  ],
  "bytecode": "0x608060405234801561001057600080fd5b50615fa3806100206000396000f3fe60806040523480156200001157600080fd5b50600436106200005e5760003560e01c80635fe90444146200006357806366b1f8841462000099578063cd78aefb14620000cf578063e40de8871462000105578063ec1362c4146200013d575b600080fd5b6200008160048036038101906200007b91906200083d565b6200015f565b604051620000909190620008fa565b60405180910390f35b620000b76004803603810190620000b1919062000c69565b6200019f565b604051620000c6919062000d7c565b60405180910390f35b620000ed6004803603810190620000e791906200083d565b62000512565b604051620000fc919062000d7c565b60405180910390f35b6200012360048036038101906200011d919062000dca565b62000545565b604051620001349392919062000e96565b60405180910390f35b62000147620007d4565b60405162000156919062000ee1565b60405180910390f35b600081815481106200017057600080fd5b906000526020600020016000915054906101000a900473ffffffffffffffffffffffffffffffffffffffff1681565b600080855103620001e7576040517f08c379a0000000000000000000000000000000000000000000000000000000008152600401620001de9062000f4e565b60405180910390fd5b60008451036200022e576040517f08c379a0000000000000000000000000000000000000000000000000000000008152600401620002259062000fc0565b60405180910390fd5b6000825111801562000241575060008351115b62000283576040517f08c379a00000000000000000000000000000000000000000000000000000000081526004016200027a9062001058565b60405180910390fd5b8151835114620002ca576040517f08c379a0000000000000000000000000000000000000000000000000000000008152600401620002c190620010f0565b60405180910390fd5b600085858585604051620002de90620007e0565b620002ed9493929190620012ae565b604051809103906000f0801580156200030a573d6000803e3d6000fd5b5090506000819080600181540180825580915050600190039060005260206000200160009091909190916101000a81548173ffffffffffffffffffffffffffffffffffffffff021916908373ffffffffffffffffffffffffffffffffffffffff16021790555080600160008373ffffffffffffffffffffffffffffffffffffffff1673ffffffffffffffffffffffffffffffffffffffff16815260200190815260200160002060006101000a81548173ffffffffffffffffffffffffffffffffffffffff021916908373ffffffffffffffffffffffffffffffffffffffff1602179055503260026000600160008054905062000407919062001346565b815260200190815260200160002060006101000a81548173ffffffffffffffffffffffffffffffffffffffff021916908373ffffffffffffffffffffffffffffffffffffffff1602179055507f456f2029464ac33390863938688d2719c05faeeb19ffcda65d002e424b96bd6333828373ffffffffffffffffffffffffffffffffffffffff166306fdde036040518163ffffffff1660e01b8152600401600060405180830381865afa158015620004c2573d6000803e3d6000fd5b505050506040513d6000823e3d601f19601f82011682018060405250810190620004ed9190620013ff565b604051620004fe9392919062001450565b60405180910390a180915050949350505050565b60026020528060005260406000206000915054906101000a900473ffffffffffffffffffffffffffffffffffffffff1681565b6060806000600160008573ffffffffffffffffffffffffffffffffffffffff1673ffffffffffffffffffffffffffffffffffffffff16815260200190815260200160002060009054906101000a900473ffffffffffffffffffffffffffffffffffffffff1673ffffffffffffffffffffffffffffffffffffffff166306fdde036040518163ffffffff1660e01b8152600401600060405180830381865afa158015620005f5573d6000803e3d6000fd5b505050506040513d6000823e3d601f19601f82011682018060405250810190620006209190620013ff565b9250600160008573ffffffffffffffffffffffffffffffffffffffff1673ffffffffffffffffffffffffffffffffffffffff16815260200190815260200160002060009054906101000a900473ffffffffffffffffffffffffffffffffffffffff1673ffffffffffffffffffffffffffffffffffffffff16635b2bd79e6040518163ffffffff1660e01b8152600401600060405180830381865afa158015620006cd573d6000803e3d6000fd5b505050506040513d6000823e3d601f19601f82011682018060405250810190620006f89190620013ff565b9150600160008573ffffffffffffffffffffffffffffffffffffffff1673ffffffffffffffffffffffffffffffffffffffff16815260200190815260200160002060009054906101000a900473ffffffffffffffffffffffffffffffffffffffff1673ffffffffffffffffffffffffffffffffffffffff1663524061936040518163ffffffff1660e01b8152600401602060405180830381865afa158015620007a5573d6000803e3d6000fd5b505050506040513d601f19601f82011682018060405250810190620007cb9190620014ab565b90509193909250565b60008080549050905090565b614a9080620014de83390190565b6000604051905090565b600080fd5b600080fd5b6000819050919050565b620008178162000802565b81146200082357600080fd5b50565b60008135905062000837816200080c565b92915050565b600060208284031215620008565762000855620007f8565b5b6000620008668482850162000826565b91505092915050565b600073ffffffffffffffffffffffffffffffffffffffff82169050919050565b6000819050919050565b6000620008ba620008b4620008ae846200086f565b6200088f565b6200086f565b9050919050565b6000620008ce8262000899565b9050919050565b6000620008e282620008c1565b9050919050565b620008f481620008d5565b82525050565b6000602082019050620009116000830184620008e9565b92915050565b600080fd5b600080fd5b6000601f19601f8301169050919050565b7f4e487b7100000000000000000000000000000000000000000000000000000000600052604160045260246000fd5b6200096c8262000921565b810181811067ffffffffffffffff821117156200098e576200098d62000932565b5b80604052505050565b6000620009a3620007ee565b9050620009b1828262000961565b919050565b600067ffffffffffffffff821115620009d457620009d362000932565b5b620009df8262000921565b9050602081019050919050565b82818337600083830152505050565b600062000a1262000a0c84620009b6565b62000997565b90508281526020810184848401111562000a315762000a306200091c565b5b62000a3e848285620009ec565b509392505050565b600082601f83011262000a5e5762000a5d62000917565b5b813562000a70848260208601620009fb565b91505092915050565b600067ffffffffffffffff82111562000a975762000a9662000932565b5b602082029050602081019050919050565b600080fd5b600062000ac462000abe8462000a79565b62000997565b9050808382526020820190506020840283018581111562000aea5762000ae962000aa8565b5b835b8181101562000b17578062000b02888262000826565b84526020840193505060208101905062000aec565b5050509392505050565b600082601f83011262000b395762000b3862000917565b5b813562000b4b84826020860162000aad565b91505092915050565b600067ffffffffffffffff82111562000b725762000b7162000932565b5b602082029050602081019050919050565b600061ffff82169050919050565b62000b9c8162000b83565b811462000ba857600080fd5b50565b60008135905062000bbc8162000b91565b92915050565b600062000bd962000bd38462000b54565b62000997565b9050808382526020820190506020840283018581111562000bff5762000bfe62000aa8565b5b835b8181101562000c2c578062000c17888262000bab565b84526020840193505060208101905062000c01565b5050509392505050565b600082601f83011262000c4e5762000c4d62000917565b5b813562000c6084826020860162000bc2565b91505092915050565b6000806000806080858703121562000c865762000c85620007f8565b5b600085013567ffffffffffffffff81111562000ca75762000ca6620007fd565b5b62000cb58782880162000a46565b945050602085013567ffffffffffffffff81111562000cd95762000cd8620007fd565b5b62000ce78782880162000a46565b935050604085013567ffffffffffffffff81111562000d0b5762000d0a620007fd565b5b62000d198782880162000b21565b925050606085013567ffffffffffffffff81111562000d3d5762000d3c620007fd565b5b62000d4b8782880162000c36565b91505092959194509250565b600062000d64826200086f565b9050919050565b62000d768162000d57565b82525050565b600060208201905062000d93600083018462000d6b565b92915050565b62000da48162000d57565b811462000db057600080fd5b50565b60008135905062000dc48162000d99565b92915050565b60006020828403121562000de35762000de2620007f8565b5b600062000df38482850162000db3565b91505092915050565b600081519050919050565b600082825260208201905092915050565b60005b8381101562000e3857808201518184015260208101905062000e1b565b60008484015250505050565b600062000e518262000dfc565b62000e5d818562000e07565b935062000e6f81856020860162000e18565b62000e7a8162000921565b840191505092915050565b62000e908162000802565b82525050565b6000606082019050818103600083015262000eb2818662000e44565b9050818103602083015262000ec8818562000e44565b905062000ed9604083018462000e85565b949350505050565b600060208201905062000ef8600083018462000e85565b92915050565b7f5f6576656e744e616d6520697320656d70747900000000000000000000000000600082015250565b600062000f3660138362000e07565b915062000f438262000efe565b602082019050919050565b6000602082019050818103600083015262000f698162000f27565b9050919050565b7f5f75726920697320656d70747900000000000000000000000000000000000000600082015250565b600062000fa8600d8362000e07565b915062000fb58262000f70565b602082019050919050565b6000602082019050818103600083015262000fdb8162000f99565b9050919050565b7f596f752073686f756c642068617665206174206c65617374206f6e652074696360008201527f6b65740000000000000000000000000000000000000000000000000000000000602082015250565b60006200104060238362000e07565b91506200104d8262000fe2565b604082019050919050565b60006020820190508181036000830152620010738162001031565b9050919050565b7f50726f76696465642061727261792068617665206e6f742073616d65206c656e60008201527f6774680000000000000000000000000000000000000000000000000000000000602082015250565b6000620010d860238362000e07565b9150620010e5826200107a565b604082019050919050565b600060208201905081810360008301526200110b81620010c9565b9050919050565b600081519050919050565b600082825260208201905092915050565b6000819050602082019050919050565b620011498162000802565b82525050565b60006200115d83836200113e565b60208301905092915050565b6000602082019050919050565b6000620011838262001112565b6200118f81856200111d565b93506200119c836200112e565b8060005b83811015620011d3578151620011b788826200114f565b9750620011c48362001169565b925050600181019050620011a0565b5085935050505092915050565b600081519050919050565b600082825260208201905092915050565b6000819050602082019050919050565b620012178162000b83565b82525050565b60006200122b83836200120c565b60208301905092915050565b6000602082019050919050565b60006200125182620011e0565b6200125d8185620011eb565b93506200126a83620011fc565b8060005b83811015620012a15781516200128588826200121d565b9750620012928362001237565b9250506001810190506200126e565b5085935050505092915050565b60006080820190508181036000830152620012ca818762000e44565b90508181036020830152620012e0818662000e44565b90508181036040830152620012f6818562001176565b905081810360608301526200130c818462001244565b905095945050505050565b7f4e487b7100000000000000000000000000000000000000000000000000000000600052601160045260246000fd5b6000620013538262000802565b9150620013608362000802565b92508282039050818111156200137b576200137a62001317565b5b92915050565b6000620013986200139284620009b6565b62000997565b905082815260208101848484011115620013b757620013b66200091c565b5b620013c484828562000e18565b509392505050565b600082601f830112620013e457620013e362000917565b5b8151620013f684826020860162001381565b91505092915050565b600060208284031215620014185762001417620007f8565b5b600082015167ffffffffffffffff811115620014395762001438620007fd565b5b6200144784828501620013cc565b91505092915050565b600060608201905062001467600083018662000d6b565b62001476602083018562000d6b565b81810360408301526200148a818462000e44565b9050949350505050565b600081519050620014a5816200080c565b92915050565b600060208284031215620014c457620014c3620007f8565b5b6000620014d48482850162001494565b9150509291505056fe60806040523480156200001157600080fd5b5060405162004a9038038062004a9083398181016040528101906200003791906200088d565b8262000049816200017960201b60201c565b506200006a6200005e6200018e60201b60201c565b6200019660201b60201c565b60016004819055508051825114620000b9576040517f08c379a0000000000000000000000000000000000000000000000000000000008152600401620000b09062000a02565b60405180910390fd5b600083510362000100576040517f08c379a0000000000000000000000000000000000000000000000000000000008152600401620000f79062000a74565b60405180910390fd5b836006908162000111919062000cd7565b50826005908162000123919062000cd7565b5080600790805190602001906200013c929190620003ad565b50805160088190555081600990805190602001906200015d9291906200045e565b506200016f326200025c60201b60201c565b5050505062000ec8565b80600290816200018a919062000cd7565b5050565b600033905090565b6000600360009054906101000a900473ffffffffffffffffffffffffffffffffffffffff16905081600360006101000a81548173ffffffffffffffffffffffffffffffffffffffff021916908373ffffffffffffffffffffffffffffffffffffffff1602179055508173ffffffffffffffffffffffffffffffffffffffff168173ffffffffffffffffffffffffffffffffffffffff167f8be0079c531659141344cd1fd0a4f28419497f9722a3daafe3b4186f6b6457e060405160405180910390a35050565b6200026c620002f260201b60201c565b600073ffffffffffffffffffffffffffffffffffffffff168173ffffffffffffffffffffffffffffffffffffffff1603620002de576040517f08c379a0000000000000000000000000000000000000000000000000000000008152600401620002d59062000e34565b60405180910390fd5b620002ef816200019660201b60201c565b50565b620003026200018e60201b60201c565b73ffffffffffffffffffffffffffffffffffffffff16620003286200038360201b60201c565b73ffffffffffffffffffffffffffffffffffffffff161462000381576040517f08c379a0000000000000000000000000000000000000000000000000000000008152600401620003789062000ea6565b60405180910390fd5b565b6000600360009054906101000a900473ffffffffffffffffffffffffffffffffffffffff16905090565b82805482825590600052602060002090600f016010900481019282156200044b5791602002820160005b838211156200041957835183826101000a81548161ffff021916908361ffff1602179055509260200192600201602081600101049283019260010302620003d7565b8015620004495782816101000a81549061ffff021916905560020160208160010104928301926001030262000419565b505b5090506200045a9190620004b0565b5090565b8280548282559060005260206000209081019282156200049d579160200282015b828111156200049c5782518255916020019190600101906200047f565b5b509050620004ac9190620004b0565b5090565b5b80821115620004cb576000816000905550600101620004b1565b5090565b6000604051905090565b600080fd5b600080fd5b600080fd5b600080fd5b6000601f19601f8301169050919050565b7f4e487b7100000000000000000000000000000000000000000000000000000000600052604160045260246000fd5b6200053882620004ed565b810181811067ffffffffffffffff821117156200055a5762000559620004fe565b5b80604052505050565b60006200056f620004cf565b90506200057d82826200052d565b919050565b600067ffffffffffffffff821115620005a0576200059f620004fe565b5b620005ab82620004ed565b9050602081019050919050565b60005b83811015620005d8578082015181840152602081019050620005bb565b60008484015250505050565b6000620005fb620005f58462000582565b62000563565b9050828152602081018484840111156200061a5762000619620004e8565b5b62000627848285620005b8565b509392505050565b600082601f830112620006475762000646620004e3565b5b815162000659848260208601620005e4565b91505092915050565b600067ffffffffffffffff82111562000680576200067f620004fe565b5b602082029050602081019050919050565b600080fd5b6000819050919050565b620006ab8162000696565b8114620006b757600080fd5b50565b600081519050620006cb81620006a0565b92915050565b6000620006e8620006e28462000662565b62000563565b905080838252602082019050602084028301858111156200070e576200070d62000691565b5b835b818110156200073b5780620007268882620006ba565b84526020840193505060208101905062000710565b5050509392505050565b600082601f8301126200075d576200075c620004e3565b5b81516200076f848260208601620006d1565b91505092915050565b600067ffffffffffffffff821115620007965762000795620004fe565b5b602082029050602081019050919050565b600061ffff82169050919050565b620007c081620007a7565b8114620007cc57600080fd5b50565b600081519050620007e081620007b5565b92915050565b6000620007fd620007f78462000778565b62000563565b9050808382526020820190506020840283018581111562000823576200082262000691565b5b835b818110156200085057806200083b8882620007cf565b84526020840193505060208101905062000825565b5050509392505050565b600082601f830112620008725762000871620004e3565b5b815162000884848260208601620007e6565b91505092915050565b60008060008060808587031215620008aa57620008a9620004d9565b5b600085015167ffffffffffffffff811115620008cb57620008ca620004de565b5b620008d9878288016200062f565b945050602085015167ffffffffffffffff811115620008fd57620008fc620004de565b5b6200090b878288016200062f565b935050604085015167ffffffffffffffff8111156200092f576200092e620004de565b5b6200093d8782880162000745565b925050606085015167ffffffffffffffff811115620009615762000960620004de565b5b6200096f878288016200085a565b91505092959194509250565b600082825260208201905092915050565b7f50726f76696465642061727261792068617665206e6f742073616d65206c656e60008201527f6774680000000000000000000000000000000000000000000000000000000000602082015250565b6000620009ea6023836200097b565b9150620009f7826200098c565b604082019050919050565b6000602082019050818103600083015262000a1d81620009db565b9050919050565b7f5f75726920697320656d70747900000000000000000000000000000000000000600082015250565b600062000a5c600d836200097b565b915062000a698262000a24565b602082019050919050565b6000602082019050818103600083015262000a8f8162000a4d565b9050919050565b600081519050919050565b7f4e487b7100000000000000000000000000000000000000000000000000000000600052602260045260246000fd5b6000600282049050600182168062000ae957607f821691505b60208210810362000aff5762000afe62000aa1565b5b50919050565b60008190508160005260206000209050919050565b60006020601f8301049050919050565b600082821b905092915050565b60006008830262000b697fffffffffffffffffffffffffffffffffffffffffffffffffffffffffffffffff8262000b2a565b62000b75868362000b2a565b95508019841693508086168417925050509392505050565b6000819050919050565b600062000bb862000bb262000bac8462000696565b62000b8d565b62000696565b9050919050565b6000819050919050565b62000bd48362000b97565b62000bec62000be38262000bbf565b84845462000b37565b825550505050565b600090565b62000c0362000bf4565b62000c1081848462000bc9565b505050565b5b8181101562000c385762000c2c60008262000bf9565b60018101905062000c16565b5050565b601f82111562000c875762000c518162000b05565b62000c5c8462000b1a565b8101602085101562000c6c578190505b62000c8462000c7b8562000b1a565b83018262000c15565b50505b505050565b600082821c905092915050565b600062000cac6000198460080262000c8c565b1980831691505092915050565b600062000cc7838362000c99565b9150826002028217905092915050565b62000ce28262000a96565b67ffffffffffffffff81111562000cfe5762000cfd620004fe565b5b62000d0a825462000ad0565b62000d1782828562000c3c565b600060209050601f83116001811462000d4f576000841562000d3a578287015190505b62000d46858262000cb9565b86555062000db6565b601f19841662000d5f8662000b05565b60005b8281101562000d895784890151825560018201915060208501945060208101905062000d62565b8683101562000da9578489015162000da5601f89168262000c99565b8355505b6001600288020188555050505b505050505050565b7f4f776e61626c653a206e6577206f776e657220697320746865207a65726f206160008201527f6464726573730000000000000000000000000000000000000000000000000000602082015250565b600062000e1c6026836200097b565b915062000e298262000dbe565b604082019050919050565b6000602082019050818103600083015262000e4f8162000e0d565b9050919050565b7f4f776e61626c653a2063616c6c6572206973206e6f7420746865206f776e6572600082015250565b600062000e8e6020836200097b565b915062000e9b8262000e56565b602082019050919050565b6000602082019050818103600083015262000ec18162000e7f565b9050919050565b613bb88062000ed86000396000f3fe60806040526004361061011e5760003560e01c80635b2bd79e116100a0578063dfcd0bbb11610064578063dfcd0bbb146103c5578063e44d311b14610402578063e985e9c51461043f578063f242432a1461047c578063f2fde38b146104a55761011e565b80635b2bd79e14610304578063715018a61461032f5780638da5cb5b14610346578063a22cb46514610371578063b56ac6c51461039a5761011e565b80632eb2c2d6116100e75780632eb2c2d61461022e5780633167611f146102575780634e1273f41461027357806351cff8d9146102b057806352406193146102d95761011e565b8062fdd58e1461012357806301ffc9a71461016057806306fdde031461019d5780630e89341c146101c85780631f7fdffa14610205575b600080fd5b34801561012f57600080fd5b5061014a600480360381019061014591906122bb565b6104ce565b604051610157919061230a565b60405180910390f35b34801561016c57600080fd5b506101876004803603810190610182919061237d565b610596565b60405161019491906123c5565b60405180910390f35b3480156101a957600080fd5b506101b2610678565b6040516101bf9190612470565b60405180910390f35b3480156101d457600080fd5b506101ef60048036038101906101ea9190612492565b610706565b6040516101fc9190612470565b60405180910390f35b34801561021157600080fd5b5061022c600480360381019061022791906126bc565b61073a565b005b34801561023a57600080fd5b5061025560048036038101906102509190612777565b61074c565b005b610271600480360381019061026c9190612880565b6107ed565b005b34801561027f57600080fd5b5061029a60048036038101906102959190612996565b61099f565b6040516102a79190612acc565b60405180910390f35b3480156102bc57600080fd5b506102d760048036038101906102d29190612aee565b610ab8565b005b3480156102e557600080fd5b506102ee610b80565b6040516102fb919061230a565b60405180910390f35b34801561031057600080fd5b50610319610b86565b6040516103269190612470565b60405180910390f35b34801561033b57600080fd5b50610344610c14565b005b34801561035257600080fd5b5061035b610c28565b6040516103689190612b2a565b60405180910390f35b34801561037d57600080fd5b5061039860048036038101906103939190612b71565b610c52565b005b3480156103a657600080fd5b506103af610c68565b6040516103bc919061230a565b60405180910390f35b3480156103d157600080fd5b506103ec60048036038101906103e79190612492565b610c70565b6040516103f99190612bc0565b60405180910390f35b34801561040e57600080fd5b5061042960048036038101906104249190612492565b610ca8565b604051610436919061230a565b60405180910390f35b34801561044b57600080fd5b5061046660048036038101906104619190612bdb565b610ccc565b60405161047391906123c5565b60405180910390f35b34801561048857600080fd5b506104a3600480360381019061049e9190612c1b565b610d60565b005b3480156104b157600080fd5b506104cc60048036038101906104c79190612aee565b610e01565b005b60008073ffffffffffffffffffffffffffffffffffffffff168373ffffffffffffffffffffffffffffffffffffffff160361053e576040517f08c379a000000000000000000000000000000000000000000000000000000000815260040161053590612d24565b60405180910390fd5b60008083815260200190815260200160002060008473ffffffffffffffffffffffffffffffffffffffff1673ffffffffffffffffffffffffffffffffffffffff16815260200190815260200160002054905092915050565b60007fd9b67a26000000000000000000000000000000000000000000000000000000007bffffffffffffffffffffffffffffffffffffffffffffffffffffffff1916827bffffffffffffffffffffffffffffffffffffffffffffffffffffffff1916148061066157507f0e89341c000000000000000000000000000000000000000000000000000000007bffffffffffffffffffffffffffffffffffffffffffffffffffffffff1916827bffffffffffffffffffffffffffffffffffffffffffffffffffffffff1916145b80610671575061067082610e84565b5b9050919050565b6006805461068590612d73565b80601f01602080910402602001604051908101604052809291908181526020018280546106b190612d73565b80156106fe5780601f106106d3576101008083540402835291602001916106fe565b820191906000526020600020905b8154815290600101906020018083116106e157829003601f168201915b505050505081565b6060600561071383610eee565b604051602001610724929190612ec4565b6040516020818303038152906040529050919050565b61074684848484610fbc565b50505050565b6107546111e8565b73ffffffffffffffffffffffffffffffffffffffff168573ffffffffffffffffffffffffffffffffffffffff16148061079a5750610799856107946111e8565b610ccc565b5b6107d9576040517f08c379a00000000000000000000000000000000000000000000000000000000081526004016107d090612f65565b60405180910390fd5b6107e685858585856111f0565b5050505050565b8061ffff166009838154811061080657610805612f85565b5b906000526020600020015461081b9190612fe3565b341461085c576040517f08c379a000000000000000000000000000000000000000000000000000000000815260040161085390613071565b60405180910390fd5b600782815481106108705761086f612f85565b5b90600052602060002090601091828204019190066002029054906101000a900461ffff1661ffff168161ffff1611156108de576040517f08c379a00000000000000000000000000000000000000000000000000000000081526004016108d5906130dd565b60405180910390fd5b80600783815481106108f3576108f2612f85565b5b90600052602060002090601091828204019190066002028282829054906101000a900461ffff1661092491906130fd565b92506101000a81548161ffff021916908361ffff1602179055507f900711f279e71608b3aa7a546fe86720f3dcd10dddc41e951b94ae329ffb0e1433308385604051610973949392919061316e565b60405180910390a161099a83838361ffff1660405180602001604052806000815250611511565b505050565b606081518351146109e5576040517f08c379a00000000000000000000000000000000000000000000000000000000081526004016109dc90613225565b60405180910390fd5b6000835167ffffffffffffffff811115610a0257610a016124c4565b5b604051908082528060200260200182016040528015610a305781602001602082028036833780820191505090505b50905060005b8451811015610aad57610a7d858281518110610a5557610a54612f85565b5b6020026020010151858381518110610a7057610a6f612f85565b5b60200260200101516104ce565b828281518110610a9057610a8f612f85565b5b60200260200101818152505080610aa690613245565b9050610a36565b508091505092915050565b610ac06116c1565b610ac861173f565b60008173ffffffffffffffffffffffffffffffffffffffff1647604051610aee906132be565b60006040518083038185875af1925050503d8060008114610b2b576040519150601f19603f3d011682016040523d82523d6000602084013e610b30565b606091505b5050905080610b74576040517f08c379a0000000000000000000000000000000000000000000000000000000008152600401610b6b9061331f565b60405180910390fd5b50610b7d61178e565b50565b60085481565b60058054610b9390612d73565b80601f0160208091040260200160405190810160405280929190818152602001828054610bbf90612d73565b8015610c0c5780601f10610be157610100808354040283529160200191610c0c565b820191906000526020600020905b815481529060010190602001808311610bef57829003601f168201915b505050505081565b610c1c6116c1565b610c266000611798565b565b6000600360009054906101000a900473ffffffffffffffffffffffffffffffffffffffff16905090565b610c64610c5d6111e8565b838361185e565b5050565b600047905090565b60078181548110610c8057600080fd5b9060005260206000209060109182820401919006600202915054906101000a900461ffff1681565b60098181548110610cb857600080fd5b906000526020600020016000915090505481565b6000600160008473ffffffffffffffffffffffffffffffffffffffff1673ffffffffffffffffffffffffffffffffffffffff16815260200190815260200160002060008373ffffffffffffffffffffffffffffffffffffffff1673ffffffffffffffffffffffffffffffffffffffff16815260200190815260200160002060009054906101000a900460ff16905092915050565b610d686111e8565b73ffffffffffffffffffffffffffffffffffffffff168573ffffffffffffffffffffffffffffffffffffffff161480610dae5750610dad85610da86111e8565b610ccc565b5b610ded576040517f08c379a0000000000000000000000000000000000000000000000000000000008152600401610de490612f65565b60405180910390fd5b610dfa85858585856119ca565b5050505050565b610e096116c1565b600073ffffffffffffffffffffffffffffffffffffffff168173ffffffffffffffffffffffffffffffffffffffff1603610e78576040517f08c379a0000000000000000000000000000000000000000000000000000000008152600401610e6f906133b1565b60405180910390fd5b610e8181611798565b50565b60007f01ffc9a7000000000000000000000000000000000000000000000000000000007bffffffffffffffffffffffffffffffffffffffffffffffffffffffff1916827bffffffffffffffffffffffffffffffffffffffffffffffffffffffff1916149050919050565b606060006001610efd84611c65565b01905060008167ffffffffffffffff811115610f1c57610f1b6124c4565b5b6040519080825280601f01601f191660200182016040528015610f4e5781602001600182028036833780820191505090505b509050600082602001820190505b600115610fb1578080600190039150507f3031323334353637383961626364656600000000000000000000000000000000600a86061a8153600a8581610fa557610fa46133d1565b5b04945060008503610f5c575b819350505050919050565b600073ffffffffffffffffffffffffffffffffffffffff168473ffffffffffffffffffffffffffffffffffffffff160361102b576040517f08c379a000000000000000000000000000000000000000000000000000000000815260040161102290613472565b60405180910390fd5b815183511461106f576040517f08c379a000000000000000000000000000000000000000000000000000000000815260040161106690613504565b60405180910390fd5b60006110796111e8565b905061108a81600087878787611db8565b60005b8451811015611143578381815181106110a9576110a8612f85565b5b60200260200101516000808784815181106110c7576110c6612f85565b5b6020026020010151815260200190815260200160002060008873ffffffffffffffffffffffffffffffffffffffff1673ffffffffffffffffffffffffffffffffffffffff16815260200190815260200160002060008282546111299190613524565b92505081905550808061113b90613245565b91505061108d565b508473ffffffffffffffffffffffffffffffffffffffff16600073ffffffffffffffffffffffffffffffffffffffff168273ffffffffffffffffffffffffffffffffffffffff167f4a39dc06d4c0dbc64b70af90fd698a233a518aa5d07e595d983b8c0526c8f7fb87876040516111bb929190613558565b60405180910390a46111d281600087878787611dc0565b6111e181600087878787611dc8565b5050505050565b600033905090565b8151835114611234576040517f08c379a000000000000000000000000000000000000000000000000000000000815260040161122b90613504565b60405180910390fd5b600073ffffffffffffffffffffffffffffffffffffffff168473ffffffffffffffffffffffffffffffffffffffff16036112a3576040517f08c379a000000000000000000000000000000000000000000000000000000000815260040161129a90613601565b60405180910390fd5b60006112ad6111e8565b90506112bd818787878787611db8565b60005b845181101561146e5760008582815181106112de576112dd612f85565b5b6020026020010151905060008583815181106112fd576112fc612f85565b5b60200260200101519050600080600084815260200190815260200160002060008b73ffffffffffffffffffffffffffffffffffffffff1673ffffffffffffffffffffffffffffffffffffffff1681526020019081526020016000205490508181101561139e576040517f08c379a000000000000000000000000000000000000000000000000000000000815260040161139590613693565b60405180910390fd5b81810360008085815260200190815260200160002060008c73ffffffffffffffffffffffffffffffffffffffff1673ffffffffffffffffffffffffffffffffffffffff168152602001908152602001600020819055508160008085815260200190815260200160002060008b73ffffffffffffffffffffffffffffffffffffffff1673ffffffffffffffffffffffffffffffffffffffff16815260200190815260200160002060008282546114539190613524565b925050819055505050508061146790613245565b90506112c0565b508473ffffffffffffffffffffffffffffffffffffffff168673ffffffffffffffffffffffffffffffffffffffff168273ffffffffffffffffffffffffffffffffffffffff167f4a39dc06d4c0dbc64b70af90fd698a233a518aa5d07e595d983b8c0526c8f7fb87876040516114e5929190613558565b60405180910390a46114fb818787878787611dc0565b611509818787878787611dc8565b505050505050565b600073ffffffffffffffffffffffffffffffffffffffff168473ffffffffffffffffffffffffffffffffffffffff1603611580576040517f08c379a000000000000000000000000000000000000000000000000000000000815260040161157790613472565b60405180910390fd5b600061158a6111e8565b9050600061159785611f9f565b905060006115a485611f9f565b90506115b583600089858589611db8565b8460008088815260200190815260200160002060008973ffffffffffffffffffffffffffffffffffffffff1673ffffffffffffffffffffffffffffffffffffffff16815260200190815260200160002060008282546116149190613524565b925050819055508673ffffffffffffffffffffffffffffffffffffffff16600073ffffffffffffffffffffffffffffffffffffffff168473ffffffffffffffffffffffffffffffffffffffff167fc3d58168c5ae7397731d063d5bbf3d657854427343f4c083240f7aacaa2d0f6289896040516116929291906136b3565b60405180910390a46116a983600089858589611dc0565b6116b883600089898989612019565b50505050505050565b6116c96111e8565b73ffffffffffffffffffffffffffffffffffffffff166116e7610c28565b73ffffffffffffffffffffffffffffffffffffffff161461173d576040517f08c379a000000000000000000000000000000000000000000000000000000000815260040161173490613728565b60405180910390fd5b565b600260045403611784576040517f08c379a000000000000000000000000000000000000000000000000000000000815260040161177b90613794565b60405180910390fd5b6002600481905550565b6001600481905550565b6000600360009054906101000a900473ffffffffffffffffffffffffffffffffffffffff16905081600360006101000a81548173ffffffffffffffffffffffffffffffffffffffff021916908373ffffffffffffffffffffffffffffffffffffffff1602179055508173ffffffffffffffffffffffffffffffffffffffff168173ffffffffffffffffffffffffffffffffffffffff167f8be0079c531659141344cd1fd0a4f28419497f9722a3daafe3b4186f6b6457e060405160405180910390a35050565b8173ffffffffffffffffffffffffffffffffffffffff168373ffffffffffffffffffffffffffffffffffffffff16036118cc576040517f08c379a00000000000000000000000000000000000000000000000000000000081526004016118c390613826565b60405180910390fd5b80600160008573ffffffffffffffffffffffffffffffffffffffff1673ffffffffffffffffffffffffffffffffffffffff16815260200190815260200160002060008473ffffffffffffffffffffffffffffffffffffffff1673ffffffffffffffffffffffffffffffffffffffff16815260200190815260200160002060006101000a81548160ff0219169083151502179055508173ffffffffffffffffffffffffffffffffffffffff168373ffffffffffffffffffffffffffffffffffffffff167f17307eab39ab6107e8899845ad3d59bd9653f200f220920489ca2b5937696c31836040516119bd91906123c5565b60405180910390a3505050565b600073ffffffffffffffffffffffffffffffffffffffff168473ffffffffffffffffffffffffffffffffffffffff1603611a39576040517f08c379a0000000000000000000000000000000000000000000000000000000008152600401611a3090613601565b60405180910390fd5b6000611a436111e8565b90506000611a5085611f9f565b90506000611a5d85611f9f565b9050611a6d838989858589611db8565b600080600088815260200190815260200160002060008a73ffffffffffffffffffffffffffffffffffffffff1673ffffffffffffffffffffffffffffffffffffffff16815260200190815260200160002054905085811015611b04576040517f08c379a0000000000000000000000000000000000000000000000000000000008152600401611afb90613693565b60405180910390fd5b85810360008089815260200190815260200160002060008b73ffffffffffffffffffffffffffffffffffffffff1673ffffffffffffffffffffffffffffffffffffffff168152602001908152602001600020819055508560008089815260200190815260200160002060008a73ffffffffffffffffffffffffffffffffffffffff1673ffffffffffffffffffffffffffffffffffffffff1681526020019081526020016000206000828254611bb99190613524565b925050819055508773ffffffffffffffffffffffffffffffffffffffff168973ffffffffffffffffffffffffffffffffffffffff168573ffffffffffffffffffffffffffffffffffffffff167fc3d58168c5ae7397731d063d5bbf3d657854427343f4c083240f7aacaa2d0f628a8a604051611c369291906136b3565b60405180910390a4611c4c848a8a86868a611dc0565b611c5a848a8a8a8a8a612019565b505050505050505050565b600080600090507a184f03e93ff9f4daa797ed6e38ed64bf6a1f0100000000000000008310611cc3577a184f03e93ff9f4daa797ed6e38ed64bf6a1f0100000000000000008381611cb957611cb86133d1565b5b0492506040810190505b6d04ee2d6d415b85acef81000000008310611d00576d04ee2d6d415b85acef81000000008381611cf657611cf56133d1565b5b0492506020810190505b662386f26fc100008310611d2f57662386f26fc100008381611d2557611d246133d1565b5b0492506010810190505b6305f5e1008310611d58576305f5e1008381611d4e57611d4d6133d1565b5b0492506008810190505b6127108310611d7d576127108381611d7357611d726133d1565b5b0492506004810190505b60648310611da05760648381611d9657611d956133d1565b5b0492506002810190505b600a8310611daf576001810190505b80915050919050565b505050505050565b505050505050565b611de78473ffffffffffffffffffffffffffffffffffffffff166121f0565b15611f97578373ffffffffffffffffffffffffffffffffffffffff1663bc197c8187878686866040518663ffffffff1660e01b8152600401611e2d95949392919061389b565b6020604051808303816000875af1925050508015611e6957506040513d601f19601f82011682018060405250810190611e669190613918565b60015b611f0e57611e75613952565b806308c379a003611ed15750611e89613974565b80611e945750611ed3565b806040517f08c379a0000000000000000000000000000000000000000000000000000000008152600401611ec89190612470565b60405180910390fd5b505b6040517f08c379a0000000000000000000000000000000000000000000000000000000008152600401611f0590613a76565b60405180910390fd5b63bc197c8160e01b7bffffffffffffffffffffffffffffffffffffffffffffffffffffffff1916817bffffffffffffffffffffffffffffffffffffffffffffffffffffffff191614611f95576040517f08c379a0000000000000000000000000000000000000000000000000000000008152600401611f8c90613b08565b60405180910390fd5b505b505050505050565b60606000600167ffffffffffffffff811115611fbe57611fbd6124c4565b5b604051908082528060200260200182016040528015611fec5781602001602082028036833780820191505090505b509050828160008151811061200457612003612f85565b5b60200260200101818152505080915050919050565b6120388473ffffffffffffffffffffffffffffffffffffffff166121f0565b156121e8578373ffffffffffffffffffffffffffffffffffffffff1663f23a6e6187878686866040518663ffffffff1660e01b815260040161207e959493929190613b28565b6020604051808303816000875af19250505080156120ba57506040513d601f19601f820116820180604052508101906120b79190613918565b60015b61215f576120c6613952565b806308c379a00361212257506120da613974565b806120e55750612124565b806040517f08c379a00000000000000000000000000000000000000000000000000000000081526004016121199190612470565b60405180910390fd5b505b6040517f08c379a000000000000000000000000000000000000000000000000000000000815260040161215690613a76565b60405180910390fd5b63f23a6e6160e01b7bffffffffffffffffffffffffffffffffffffffffffffffffffffffff1916817bffffffffffffffffffffffffffffffffffffffffffffffffffffffff1916146121e6576040517f08c379a00000000000000000000000000000000000000000000000000000000081526004016121dd90613b08565b60405180910390fd5b505b505050505050565b6000808273ffffffffffffffffffffffffffffffffffffffff163b119050919050565b6000604051905090565b600080fd5b600080fd5b600073ffffffffffffffffffffffffffffffffffffffff82169050919050565b600061225282612227565b9050919050565b61226281612247565b811461226d57600080fd5b50565b60008135905061227f81612259565b92915050565b6000819050919050565b61229881612285565b81146122a357600080fd5b50565b6000813590506122b58161228f565b92915050565b600080604083850312156122d2576122d161221d565b5b60006122e085828601612270565b92505060206122f1858286016122a6565b9150509250929050565b61230481612285565b82525050565b600060208201905061231f60008301846122fb565b92915050565b60007fffffffff0000000000000000000000000000000000000000000000000000000082169050919050565b61235a81612325565b811461236557600080fd5b50565b60008135905061237781612351565b92915050565b6000602082840312156123935761239261221d565b5b60006123a184828501612368565b91505092915050565b60008115159050919050565b6123bf816123aa565b82525050565b60006020820190506123da60008301846123b6565b92915050565b600081519050919050565b600082825260208201905092915050565b60005b8381101561241a5780820151818401526020810190506123ff565b60008484015250505050565b6000601f19601f8301169050919050565b6000612442826123e0565b61244c81856123eb565b935061245c8185602086016123fc565b61246581612426565b840191505092915050565b6000602082019050818103600083015261248a8184612437565b905092915050565b6000602082840312156124a8576124a761221d565b5b60006124b6848285016122a6565b91505092915050565b600080fd5b7f4e487b7100000000000000000000000000000000000000000000000000000000600052604160045260246000fd5b6124fc82612426565b810181811067ffffffffffffffff8211171561251b5761251a6124c4565b5b80604052505050565b600061252e612213565b905061253a82826124f3565b919050565b600067ffffffffffffffff82111561255a576125596124c4565b5b602082029050602081019050919050565b600080fd5b600061258361257e8461253f565b612524565b905080838252602082019050602084028301858111156125a6576125a561256b565b5b835b818110156125cf57806125bb88826122a6565b8452602084019350506020810190506125a8565b5050509392505050565b600082601f8301126125ee576125ed6124bf565b5b81356125fe848260208601612570565b91505092915050565b600080fd5b600067ffffffffffffffff821115612627576126266124c4565b5b61263082612426565b9050602081019050919050565b82818337600083830152505050565b600061265f61265a8461260c565b612524565b90508281526020810184848401111561267b5761267a612607565b5b61268684828561263d565b509392505050565b600082601f8301126126a3576126a26124bf565b5b81356126b384826020860161264c565b91505092915050565b600080600080608085870312156126d6576126d561221d565b5b60006126e487828801612270565b945050602085013567ffffffffffffffff81111561270557612704612222565b5b612711878288016125d9565b935050604085013567ffffffffffffffff81111561273257612731612222565b5b61273e878288016125d9565b925050606085013567ffffffffffffffff81111561275f5761275e612222565b5b61276b8782880161268e565b91505092959194509250565b600080600080600060a086880312156127935761279261221d565b5b60006127a188828901612270565b95505060206127b288828901612270565b945050604086013567ffffffffffffffff8111156127d3576127d2612222565b5b6127df888289016125d9565b935050606086013567ffffffffffffffff811115612800576127ff612222565b5b61280c888289016125d9565b925050608086013567ffffffffffffffff81111561282d5761282c612222565b5b6128398882890161268e565b9150509295509295909350565b600061ffff82169050919050565b61285d81612846565b811461286857600080fd5b50565b60008135905061287a81612854565b92915050565b6000806000606084860312156128995761289861221d565b5b60006128a786828701612270565b93505060206128b8868287016122a6565b92505060406128c98682870161286b565b9150509250925092565b600067ffffffffffffffff8211156128ee576128ed6124c4565b5b602082029050602081019050919050565b600061291261290d846128d3565b612524565b905080838252602082019050602084028301858111156129355761293461256b565b5b835b8181101561295e578061294a8882612270565b845260208401935050602081019050612937565b5050509392505050565b600082601f83011261297d5761297c6124bf565b5b813561298d8482602086016128ff565b91505092915050565b600080604083850312156129ad576129ac61221d565b5b600083013567ffffffffffffffff8111156129cb576129ca612222565b5b6129d785828601612968565b925050602083013567ffffffffffffffff8111156129f8576129f7612222565b5b612a04858286016125d9565b9150509250929050565b600081519050919050565b600082825260208201905092915050565b6000819050602082019050919050565b612a4381612285565b82525050565b6000612a558383612a3a565b60208301905092915050565b6000602082019050919050565b6000612a7982612a0e565b612a838185612a19565b9350612a8e83612a2a565b8060005b83811015612abf578151612aa68882612a49565b9750612ab183612a61565b925050600181019050612a92565b5085935050505092915050565b60006020820190508181036000830152612ae68184612a6e565b905092915050565b600060208284031215612b0457612b0361221d565b5b6000612b1284828501612270565b91505092915050565b612b2481612247565b82525050565b6000602082019050612b3f6000830184612b1b565b92915050565b612b4e816123aa565b8114612b5957600080fd5b50565b600081359050612b6b81612b45565b92915050565b60008060408385031215612b8857612b8761221d565b5b6000612b9685828601612270565b9250506020612ba785828601612b5c565b9150509250929050565b612bba81612846565b82525050565b6000602082019050612bd56000830184612bb1565b92915050565b60008060408385031215612bf257612bf161221d565b5b6000612c0085828601612270565b9250506020612c1185828601612270565b9150509250929050565b600080600080600060a08688031215612c3757612c3661221d565b5b6000612c4588828901612270565b9550506020612c5688828901612270565b9450506040612c67888289016122a6565b9350506060612c78888289016122a6565b925050608086013567ffffffffffffffff811115612c9957612c98612222565b5b612ca58882890161268e565b9150509295509295909350565b7f455243313135353a2061646472657373207a65726f206973206e6f742061207660008201527f616c6964206f776e657200000000000000000000000000000000000000000000602082015250565b6000612d0e602a836123eb565b9150612d1982612cb2565b604082019050919050565b60006020820190508181036000830152612d3d81612d01565b9050919050565b7f4e487b7100000000000000000000000000000000000000000000000000000000600052602260045260246000fd5b60006002820490506001821680612d8b57607f821691505b602082108103612d9e57612d9d612d44565b5b50919050565b600081905092915050565b60008190508160005260206000209050919050565b60008154612dd181612d73565b612ddb8186612da4565b94506001821660008114612df65760018114612e0b57612e3e565b60ff1983168652811515820286019350612e3e565b612e1485612daf565b60005b83811015612e3657815481890152600182019150602081019050612e17565b838801955050505b50505092915050565b6000612e52826123e0565b612e5c8185612da4565b9350612e6c8185602086016123fc565b80840191505092915050565b7f2e6a736f6e000000000000000000000000000000000000000000000000000000600082015250565b6000612eae600583612da4565b9150612eb982612e78565b600582019050919050565b6000612ed08285612dc4565b9150612edc8284612e47565b9150612ee782612ea1565b91508190509392505050565b7f455243313135353a2063616c6c6572206973206e6f7420746f6b656e206f776e60008201527f6572206f7220617070726f766564000000000000000000000000000000000000602082015250565b6000612f4f602e836123eb565b9150612f5a82612ef3565b604082019050919050565b60006020820190508181036000830152612f7e81612f42565b9050919050565b7f4e487b7100000000000000000000000000000000000000000000000000000000600052603260045260246000fd5b7f4e487b7100000000000000000000000000000000000000000000000000000000600052601160045260246000fd5b6000612fee82612285565b9150612ff983612285565b925082820261300781612285565b9150828204841483151761301e5761301d612fb4565b5b5092915050565b7f4e6f7420656e6f756768207765692073656e6465640000000000000000000000600082015250565b600061305b6015836123eb565b915061306682613025565b602082019050919050565b6000602082019050818103600083015261308a8161304e565b9050919050565b7f5f616d6f756e74206e6f7420617661696c61626c650000000000000000000000600082015250565b60006130c76015836123eb565b91506130d282613091565b602082019050919050565b600060208201905081810360008301526130f6816130ba565b9050919050565b600061310882612846565b915061311383612846565b9250828203905061ffff81111561312d5761312c612fb4565b5b92915050565b6000819050919050565b600061315861315361314e84612846565b613133565b612285565b9050919050565b6131688161313d565b82525050565b60006080820190506131836000830187612b1b565b6131906020830186612b1b565b61319d604083018561315f565b6131aa60608301846122fb565b95945050505050565b7f455243313135353a206163636f756e747320616e6420696473206c656e67746860008201527f206d69736d617463680000000000000000000000000000000000000000000000602082015250565b600061320f6029836123eb565b915061321a826131b3565b604082019050919050565b6000602082019050818103600083015261323e81613202565b9050919050565b600061325082612285565b91507fffffffffffffffffffffffffffffffffffffffffffffffffffffffffffffffff820361328257613281612fb4565b5b600182019050919050565b600081905092915050565b50565b60006132a860008361328d565b91506132b382613298565b600082019050919050565b60006132c98261329b565b9150819050919050565b7f4572726f72206f6e207769746864726177000000000000000000000000000000600082015250565b60006133096011836123eb565b9150613314826132d3565b602082019050919050565b60006020820190508181036000830152613338816132fc565b9050919050565b7f4f776e61626c653a206e6577206f776e657220697320746865207a65726f206160008201527f6464726573730000000000000000000000000000000000000000000000000000602082015250565b600061339b6026836123eb565b91506133a68261333f565b604082019050919050565b600060208201905081810360008301526133ca8161338e565b9050919050565b7f4e487b7100000000000000000000000000000000000000000000000000000000600052601260045260246000fd5b7f455243313135353a206d696e7420746f20746865207a65726f2061646472657360008201527f7300000000000000000000000000000000000000000000000000000000000000602082015250565b600061345c6021836123eb565b915061346782613400565b604082019050919050565b6000602082019050818103600083015261348b8161344f565b9050919050565b7f455243313135353a2069647320616e6420616d6f756e7473206c656e6774682060008201527f6d69736d61746368000000000000000000000000000000000000000000000000602082015250565b60006134ee6028836123eb565b91506134f982613492565b604082019050919050565b6000602082019050818103600083015261351d816134e1565b9050919050565b600061352f82612285565b915061353a83612285565b925082820190508082111561355257613551612fb4565b5b92915050565b600060408201905081810360008301526135728185612a6e565b905081810360208301526135868184612a6e565b90509392505050565b7f455243313135353a207472616e7366657220746f20746865207a65726f20616460008201527f6472657373000000000000000000000000000000000000000000000000000000602082015250565b60006135eb6025836123eb565b91506135f68261358f565b604082019050919050565b6000602082019050818103600083015261361a816135de565b9050919050565b7f455243313135353a20696e73756666696369656e742062616c616e636520666f60008201527f72207472616e7366657200000000000000000000000000000000000000000000602082015250565b600061367d602a836123eb565b915061368882613621565b604082019050919050565b600060208201905081810360008301526136ac81613670565b9050919050565b60006040820190506136c860008301856122fb565b6136d560208301846122fb565b9392505050565b7f4f776e61626c653a2063616c6c6572206973206e6f7420746865206f776e6572600082015250565b60006137126020836123eb565b915061371d826136dc565b602082019050919050565b6000602082019050818103600083015261374181613705565b9050919050565b7f5265656e7472616e637947756172643a207265656e7472616e742063616c6c00600082015250565b600061377e601f836123eb565b915061378982613748565b602082019050919050565b600060208201905081810360008301526137ad81613771565b9050919050565b7f455243313135353a2073657474696e6720617070726f76616c2073746174757360008201527f20666f722073656c660000000000000000000000000000000000000000000000602082015250565b60006138106029836123eb565b915061381b826137b4565b604082019050919050565b6000602082019050818103600083015261383f81613803565b9050919050565b600081519050919050565b600082825260208201905092915050565b600061386d82613846565b6138778185613851565b93506138878185602086016123fc565b61389081612426565b840191505092915050565b600060a0820190506138b06000830188612b1b565b6138bd6020830187612b1b565b81810360408301526138cf8186612a6e565b905081810360608301526138e38185612a6e565b905081810360808301526138f78184613862565b90509695505050505050565b60008151905061391281612351565b92915050565b60006020828403121561392e5761392d61221d565b5b600061393c84828501613903565b91505092915050565b60008160e01c9050919050565b600060033d11156139715760046000803e61396e600051613945565b90505b90565b600060443d10613a0157613986612213565b60043d036004823e80513d602482011167ffffffffffffffff821117156139ae575050613a01565b808201805167ffffffffffffffff8111156139cc5750505050613a01565b80602083010160043d0385018111156139e9575050505050613a01565b6139f8826020018501866124f3565b82955050505050505b90565b7f455243313135353a207472616e7366657220746f206e6f6e2d4552433131353560008201527f526563656976657220696d706c656d656e746572000000000000000000000000602082015250565b6000613a606034836123eb565b9150613a6b82613a04565b604082019050919050565b60006020820190508181036000830152613a8f81613a53565b9050919050565b7f455243313135353a204552433131353552656365697665722072656a6563746560008201527f6420746f6b656e73000000000000000000000000000000000000000000000000602082015250565b6000613af26028836123eb565b9150613afd82613a96565b604082019050919050565b60006020820190508181036000830152613b2181613ae5565b9050919050565b600060a082019050613b3d6000830188612b1b565b613b4a6020830187612b1b565b613b5760408301866122fb565b613b6460608301856122fb565b8181036080830152613b768184613862565b9050969550505050505056fea2646970667358221220d89255d52e780f71ae6cbd419f893c0334f56fcc0d09e9ffdc21fabfeb96762f64736f6c63430008110033a2646970667358221220696d475decfd19d0bfe5d751b1c6cedcf3729505c94243b3acb3506f3a76992b64736f6c63430008110033",
  "linkReferences": {},
  "deployedLinkReferences": {}
}