{
  "_format": "hh-sol-artifact-1",
  "contractName": "TicketSFT",
  "sourceName": "contracts/TicketSFT.sol",
  "abi": [
    {
      "inputs": [
        {
          "internalType": "string",
          "name": "_eventName",
          "type": "string"
        },
        {
          "internalType": "string",
          "name": "_uri",
          "type": "string"
        },
        {
          "internalType": "uint256[]",
          "name": "_ticketPrices",
          "type": "uint256[]"
        },
        {
          "internalType": "uint256[]",
          "name": "_availableTickets",
          "type": "uint256[]"
        }
      ],
      "stateMutability": "nonpayable",
      "type": "constructor"
    },
    {
      "anonymous": false,
      "inputs": [
        {
          "indexed": true,
          "internalType": "address",
          "name": "account",
          "type": "address"
        },
        {
          "indexed": true,
          "internalType": "address",
          "name": "operator",
          "type": "address"
        },
        {
          "indexed": false,
          "internalType": "bool",
          "name": "approved",
          "type": "bool"
        }
      ],
      "name": "ApprovalForAll",
      "type": "event"
    },
    {
      "anonymous": false,
      "inputs": [
        {
          "indexed": false,
          "internalType": "address",
          "name": "_addr",
          "type": "address"
        },
        {
          "indexed": false,
          "internalType": "uint256",
          "name": "_amount",
          "type": "uint256"
        }
      ],
      "name": "Deposit",
      "type": "event"
    },
    {
      "anonymous": false,
      "inputs": [
        {
          "indexed": false,
          "internalType": "address",
          "name": "_addr",
          "type": "address"
        }
      ],
      "name": "FallbackEvent",
      "type": "event"
    },
    {
      "anonymous": false,
      "inputs": [
        {
          "indexed": true,
          "internalType": "address",
          "name": "previousOwner",
          "type": "address"
        },
        {
          "indexed": true,
          "internalType": "address",
          "name": "newOwner",
          "type": "address"
        }
      ],
      "name": "OwnershipTransferred",
      "type": "event"
    },
    {
      "anonymous": false,
      "inputs": [
        {
          "indexed": false,
          "internalType": "address",
          "name": "owner",
          "type": "address"
        },
        {
          "indexed": false,
          "internalType": "address",
          "name": "collectionAddr",
          "type": "address"
        },
        {
          "indexed": false,
          "internalType": "uint256",
          "name": "amount",
          "type": "uint256"
        },
        {
          "indexed": false,
          "internalType": "uint256",
          "name": "id",
          "type": "uint256"
        }
      ],
      "name": "TicketMinted",
      "type": "event"
    },
    {
      "anonymous": false,
      "inputs": [
        {
          "indexed": false,
          "internalType": "address",
          "name": "owner",
          "type": "address"
        },
        {
          "indexed": false,
          "internalType": "address",
          "name": "collectionAddr",
          "type": "address"
        },
        {
          "indexed": false,
          "internalType": "uint256[]",
          "name": "ids",
          "type": "uint256[]"
        },
        {
          "indexed": false,
          "internalType": "uint256[]",
          "name": "amounts",
          "type": "uint256[]"
        }
      ],
      "name": "TicketMintedBatch",
      "type": "event"
    },
    {
      "anonymous": false,
      "inputs": [
        {
          "indexed": true,
          "internalType": "address",
          "name": "operator",
          "type": "address"
        },
        {
          "indexed": true,
          "internalType": "address",
          "name": "from",
          "type": "address"
        },
        {
          "indexed": true,
          "internalType": "address",
          "name": "to",
          "type": "address"
        },
        {
          "indexed": false,
          "internalType": "uint256[]",
          "name": "ids",
          "type": "uint256[]"
        },
        {
          "indexed": false,
          "internalType": "uint256[]",
          "name": "values",
          "type": "uint256[]"
        }
      ],
      "name": "TransferBatch",
      "type": "event"
    },
    {
      "anonymous": false,
      "inputs": [
        {
          "indexed": true,
          "internalType": "address",
          "name": "operator",
          "type": "address"
        },
        {
          "indexed": true,
          "internalType": "address",
          "name": "from",
          "type": "address"
        },
        {
          "indexed": true,
          "internalType": "address",
          "name": "to",
          "type": "address"
        },
        {
          "indexed": false,
          "internalType": "uint256",
          "name": "id",
          "type": "uint256"
        },
        {
          "indexed": false,
          "internalType": "uint256",
          "name": "value",
          "type": "uint256"
        }
      ],
      "name": "TransferSingle",
      "type": "event"
    },
    {
      "anonymous": false,
      "inputs": [
        {
          "indexed": false,
          "internalType": "string",
          "name": "value",
          "type": "string"
        },
        {
          "indexed": true,
          "internalType": "uint256",
          "name": "id",
          "type": "uint256"
        }
      ],
      "name": "URI",
      "type": "event"
    },
    {
      "anonymous": false,
      "inputs": [
        {
          "indexed": false,
          "internalType": "address",
          "name": "to",
          "type": "address"
        },
        {
          "indexed": false,
          "internalType": "uint256",
          "name": "amount",
          "type": "uint256"
        }
      ],
      "name": "Withdraw",
      "type": "event"
    },
    {
      "stateMutability": "payable",
      "type": "fallback"
    },
    {
      "inputs": [
        {
          "internalType": "uint256",
          "name": "",
          "type": "uint256"
        }
      ],
      "name": "availableTickets",
      "outputs": [
        {
          "internalType": "uint256",
          "name": "",
          "type": "uint256"
        }
      ],
      "stateMutability": "view",
      "type": "function"
    },
    {
      "inputs": [],
      "name": "availableTicketsLength",
      "outputs": [
        {
          "internalType": "uint256",
          "name": "",
          "type": "uint256"
        }
      ],
      "stateMutability": "view",
      "type": "function"
    },
    {
      "inputs": [
        {
          "internalType": "address",
          "name": "account",
          "type": "address"
        },
        {
          "internalType": "uint256",
          "name": "id",
          "type": "uint256"
        }
      ],
      "name": "balanceOf",
      "outputs": [
        {
          "internalType": "uint256",
          "name": "",
          "type": "uint256"
        }
      ],
      "stateMutability": "view",
      "type": "function"
    },
    {
      "inputs": [
        {
          "internalType": "address[]",
          "name": "accounts",
          "type": "address[]"
        },
        {
          "internalType": "uint256[]",
          "name": "ids",
          "type": "uint256[]"
        }
      ],
      "name": "balanceOfBatch",
      "outputs": [
        {
          "internalType": "uint256[]",
          "name": "",
          "type": "uint256[]"
        }
      ],
      "stateMutability": "view",
      "type": "function"
    },
    {
      "inputs": [],
      "name": "baseMetadataURI",
      "outputs": [
        {
          "internalType": "string",
          "name": "",
          "type": "string"
        }
      ],
      "stateMutability": "view",
      "type": "function"
    },
    {
      "inputs": [],
      "name": "collectionBalance",
      "outputs": [
        {
          "internalType": "uint256",
          "name": "",
          "type": "uint256"
        }
      ],
      "stateMutability": "view",
      "type": "function"
    },
    {
      "inputs": [
        {
          "internalType": "address",
          "name": "account",
          "type": "address"
        },
        {
          "internalType": "address",
          "name": "operator",
          "type": "address"
        }
      ],
      "name": "isApprovedForAll",
      "outputs": [
        {
          "internalType": "bool",
          "name": "",
          "type": "bool"
        }
      ],
      "stateMutability": "view",
      "type": "function"
    },
    {
      "inputs": [
        {
          "internalType": "address",
          "name": "_account",
          "type": "address"
        },
        {
          "internalType": "uint256",
          "name": "_id",
          "type": "uint256"
        },
        {
          "internalType": "uint256",
          "name": "_amount",
          "type": "uint256"
        }
      ],
      "name": "mint",
      "outputs": [],
      "stateMutability": "payable",
      "type": "function"
    },
    {
      "inputs": [
        {
          "internalType": "address",
          "name": "_to",
          "type": "address"
        },
        {
          "internalType": "uint256[]",
          "name": "_ids",
          "type": "uint256[]"
        },
        {
          "internalType": "uint256[]",
          "name": "_amounts",
          "type": "uint256[]"
        },
        {
          "internalType": "bytes",
          "name": "_data",
          "type": "bytes"
        }
      ],
      "name": "mintBatch",
      "outputs": [],
      "stateMutability": "payable",
      "type": "function"
    },
    {
      "inputs": [],
      "name": "name",
      "outputs": [
        {
          "internalType": "string",
          "name": "",
          "type": "string"
        }
      ],
      "stateMutability": "view",
      "type": "function"
    },
    {
      "inputs": [],
      "name": "owner",
      "outputs": [
        {
          "internalType": "address",
          "name": "",
          "type": "address"
        }
      ],
      "stateMutability": "view",
      "type": "function"
    },
    {
      "inputs": [],
      "name": "renounceOwnership",
      "outputs": [],
      "stateMutability": "nonpayable",
      "type": "function"
    },
    {
      "inputs": [
        {
          "internalType": "address",
          "name": "from",
          "type": "address"
        },
        {
          "internalType": "address",
          "name": "to",
          "type": "address"
        },
        {
          "internalType": "uint256[]",
          "name": "ids",
          "type": "uint256[]"
        },
        {
          "internalType": "uint256[]",
          "name": "amounts",
          "type": "uint256[]"
        },
        {
          "internalType": "bytes",
          "name": "data",
          "type": "bytes"
        }
      ],
      "name": "safeBatchTransferFrom",
      "outputs": [],
      "stateMutability": "nonpayable",
      "type": "function"
    },
    {
      "inputs": [
        {
          "internalType": "address",
          "name": "from",
          "type": "address"
        },
        {
          "internalType": "address",
          "name": "to",
          "type": "address"
        },
        {
          "internalType": "uint256",
          "name": "id",
          "type": "uint256"
        },
        {
          "internalType": "uint256",
          "name": "amount",
          "type": "uint256"
        },
        {
          "internalType": "bytes",
          "name": "data",
          "type": "bytes"
        }
      ],
      "name": "safeTransferFrom",
      "outputs": [],
      "stateMutability": "nonpayable",
      "type": "function"
    },
    {
      "inputs": [
        {
          "internalType": "address",
          "name": "operator",
          "type": "address"
        },
        {
          "internalType": "bool",
          "name": "approved",
          "type": "bool"
        }
      ],
      "name": "setApprovalForAll",
      "outputs": [],
      "stateMutability": "nonpayable",
      "type": "function"
    },
    {
      "inputs": [
        {
          "internalType": "bytes4",
          "name": "interfaceId",
          "type": "bytes4"
        }
      ],
      "name": "supportsInterface",
      "outputs": [
        {
          "internalType": "bool",
          "name": "",
          "type": "bool"
        }
      ],
      "stateMutability": "view",
      "type": "function"
    },
    {
      "inputs": [
        {
          "internalType": "uint256",
          "name": "",
          "type": "uint256"
        }
      ],
      "name": "ticketPrices",
      "outputs": [
        {
          "internalType": "uint256",
          "name": "",
          "type": "uint256"
        }
      ],
      "stateMutability": "view",
      "type": "function"
    },
    {
      "inputs": [
        {
          "internalType": "address",
          "name": "newOwner",
          "type": "address"
        }
      ],
      "name": "transferOwnership",
      "outputs": [],
      "stateMutability": "nonpayable",
      "type": "function"
    },
    {
      "inputs": [
        {
          "internalType": "uint256",
          "name": "_tokenId",
          "type": "uint256"
        }
      ],
      "name": "uri",
      "outputs": [
        {
          "internalType": "string",
          "name": "",
          "type": "string"
        }
      ],
      "stateMutability": "view",
      "type": "function"
    },
    {
      "inputs": [
        {
          "internalType": "address",
          "name": "_addr",
          "type": "address"
        }
      ],
      "name": "withdraw",
      "outputs": [],
      "stateMutability": "nonpayable",
      "type": "function"
    },
    {
      "stateMutability": "payable",
      "type": "receive"
    }
  ],
  "bytecode": "0x60806040523480156200001157600080fd5b506040516200299638038062002996833981016040819052620000349162000461565b8262000040816200015b565b506200004c336200016d565b60016004558051825114620000b45760405162461bcd60e51b815260206004820152602360248201527f50726f76696465642061727261792068617665206e6f742073616d65206c656e6044820152620cee8d60eb1b60648201526084015b60405180910390fd5b8251600003620000f75760405162461bcd60e51b815260206004820152600d60248201526c5f75726920697320656d70747960981b6044820152606401620000ab565b6006620001058582620005a9565b506005620001148482620005a9565b5080516200012a9060079060208401906200029c565b5080516008558151620001459060099060208501906200029c565b506200015133620001bf565b5050505062000675565b6002620001698282620005a9565b5050565b600380546001600160a01b038381166001600160a01b0319831681179093556040519116919082907f8be0079c531659141344cd1fd0a4f28419497f9722a3daafe3b4186f6b6457e090600090a35050565b620001c96200023e565b6001600160a01b038116620002305760405162461bcd60e51b815260206004820152602660248201527f4f776e61626c653a206e6577206f776e657220697320746865207a65726f206160448201526564647265737360d01b6064820152608401620000ab565b6200023b816200016d565b50565b6003546001600160a01b031633146200029a5760405162461bcd60e51b815260206004820181905260248201527f4f776e61626c653a2063616c6c6572206973206e6f7420746865206f776e65726044820152606401620000ab565b565b828054828255906000526020600020908101928215620002da579160200282015b82811115620002da578251825591602001919060010190620002bd565b50620002e8929150620002ec565b5090565b5b80821115620002e85760008155600101620002ed565b634e487b7160e01b600052604160045260246000fd5b604051601f8201601f191681016001600160401b038111828210171562000344576200034462000303565b604052919050565b600082601f8301126200035e57600080fd5b81516001600160401b038111156200037a576200037a62000303565b602062000390601f8301601f1916820162000319565b8281528582848701011115620003a557600080fd5b60005b83811015620003c5578581018301518282018401528201620003a8565b506000928101909101919091529392505050565b600082601f830112620003eb57600080fd5b815160206001600160401b0382111562000409576200040962000303565b8160051b6200041a82820162000319565b92835284810182019282810190878511156200043557600080fd5b83870192505b8483101562000456578251825291830191908301906200043b565b979650505050505050565b600080600080608085870312156200047857600080fd5b84516001600160401b03808211156200049057600080fd5b6200049e888389016200034c565b95506020870151915080821115620004b557600080fd5b620004c3888389016200034c565b94506040870151915080821115620004da57600080fd5b620004e888838901620003d9565b93506060870151915080821115620004ff57600080fd5b506200050e87828801620003d9565b91505092959194509250565b600181811c908216806200052f57607f821691505b6020821081036200055057634e487b7160e01b600052602260045260246000fd5b50919050565b601f821115620005a457600081815260208120601f850160051c810160208610156200057f5750805b601f850160051c820191505b81811015620005a0578281556001016200058b565b5050505b505050565b81516001600160401b03811115620005c557620005c562000303565b620005dd81620005d684546200051a565b8462000556565b602080601f831160018114620006155760008415620005fc5750858301515b600019600386901b1c1916600185901b178555620005a0565b600085815260208120601f198616915b82811015620006465788860151825594840194600190910190840162000625565b5085821015620006655787850151600019600388901b60f8161c191681555b5050505050600190811b01905550565b61231180620006856000396000f3fe6080604052600436106101225760003560e01c80635b2bd79e116100a0578063dfcd0bbb11610064578063dfcd0bbb146103ad578063e44d311b146103cd578063e985e9c5146103ed578063f242432a14610436578063f2fde38b1461045657610162565b80635b2bd79e14610328578063715018a61461033d5780638da5cb5b14610352578063a22cb4651461037a578063b56ac6c51461039a57610162565b80631f7fdffa116100e75780631f7fdffa146102925780632eb2c2d6146102a55780634e1273f4146102c557806351cff8d9146102f2578063524061931461031257610162565b8062fdd58e146101d857806301ffc9a71461020b57806306fdde031461023b5780630e89341c1461025d578063156e29f61461027d57610162565b3661016257604080513381523460208201527fe1fffcc4923d04b559f4d29a8bfc6cda04eb5b0d3c460751c2402c5c5cc9109c91015b60405180910390a1005b36156101a85760405162461bcd60e51b815260206004820152601060248201526f139bc819185d18481c1c9bdd9a59195960821b60448201526064015b60405180910390fd5b6040513381527f6125c2f3d3934c922906127a0cfeab5dfa2450fd2366c3c398fb7a0e16d1997c90602001610158565b3480156101e457600080fd5b506101f86101f3366004611824565b610476565b6040519081526020015b60405180910390f35b34801561021757600080fd5b5061022b610226366004611864565b61050a565b6040519015158152602001610202565b34801561024757600080fd5b5061025061055a565b60405161020291906118d8565b34801561026957600080fd5b506102506102783660046118eb565b6105e8565b61029061028b366004611904565b61061c565b005b6102906102a0366004611a83565b610789565b3480156102b157600080fd5b506102906102c0366004611b1c565b6109eb565b3480156102d157600080fd5b506102e56102e0366004611bc6565b610a30565b6040516102029190611ccc565b3480156102fe57600080fd5b5061029061030d366004611cdf565b610b5a565b34801561031e57600080fd5b506101f860085481565b34801561033457600080fd5b50610250610c50565b34801561034957600080fd5b50610290610c5d565b34801561035e57600080fd5b506003546040516001600160a01b039091168152602001610202565b34801561038657600080fd5b50610290610395366004611cfa565b610c71565b3480156103a657600080fd5b50476101f8565b3480156103b957600080fd5b506101f86103c83660046118eb565b610c80565b3480156103d957600080fd5b506101f86103e83660046118eb565b610ca1565b3480156103f957600080fd5b5061022b610408366004611d36565b6001600160a01b03918216600090815260016020908152604080832093909416825291909152205460ff1690565b34801561044257600080fd5b50610290610451366004611d69565b610cb1565b34801561046257600080fd5b50610290610471366004611cdf565b610cf6565b60006001600160a01b0383166104e15760405162461bcd60e51b815260206004820152602a60248201527f455243313135353a2061646472657373207a65726f206973206e6f742061207660448201526930b634b21037bbb732b960b11b606482015260840161019f565b506000818152602081815260408083206001600160a01b03861684529091529020545b92915050565b60006001600160e01b03198216636cdb3d1360e11b148061053b57506001600160e01b031982166303a24d0760e21b145b8061050457506301ffc9a760e01b6001600160e01b0319831614610504565b6006805461056790611dce565b80601f016020809104026020016040519081016040528092919081815260200182805461059390611dce565b80156105e05780601f106105b5576101008083540402835291602001916105e0565b820191906000526020600020905b8154815290600101906020018083116105c357829003601f168201915b505050505081565b606060056105f583610d6c565b604051602001610606929190611e24565b6040516020818303038152906040529050919050565b806009838154811061063057610630611ee2565b90600052602060002001546106459190611f0e565b341461068b5760405162461bcd60e51b8152602060048201526015602482015274139bdd08195b9bdd59da081dd95a481cd95b991959605a1b604482015260640161019f565b6007828154811061069e5761069e611ee2565b90600052602060002001548111156106f05760405162461bcd60e51b81526020600482015260156024820152745f616d6f756e74206e6f7420617661696c61626c6560581b604482015260640161019f565b806007838154811061070457610704611ee2565b90600052602060002001600082825461071d9190611f25565b909155505060408051338152306020820152908101829052606081018390527f900711f279e71608b3aa7a546fe86720f3dcd10dddc41e951b94ae329ffb0e149060800160405180910390a161078483838360405180602001604052806000815250610dff565b505050565b8151835111156107ea5760405162461bcd60e51b815260206004820152602660248201527f5f69647320616e64205f616d6f756e74732068617665206e6f742073616d65206044820152650d8cadccee8d60d31b606482015260840161019f565b6000805b845181101561095357600785828151811061080b5761080b611ee2565b60200260200101518154811061082357610823611ee2565b906000526020600020015484828151811061084057610840611ee2565b6020026020010151111561088e5760405162461bcd60e51b81526020600482015260156024820152745f616d6f756e74206e6f7420617661696c61626c6560581b604482015260640161019f565b8381815181106108a0576108a0611ee2565b602002602001015160098683815181106108bc576108bc611ee2565b6020026020010151815481106108d4576108d4611ee2565b90600052602060002001546108e99190611f0e565b6108f39083611f38565b915083818151811061090757610907611ee2565b60200260200101516007828154811061092257610922611ee2565b90600052602060002001600082825461093b9190611f25565b9091555081905061094b81611f4b565b9150506107ee565b5080341461099b5760405162461bcd60e51b8152602060048201526015602482015274139bdd08195b9bdd59da081dd95a481cd95b991959605a1b604482015260640161019f565b7fae15d160fe1259a4ea8d7185a8cfccbeb408cc7b1a0da2e5fe1f25c22bfa6a8c333085876040516109d09493929190611f64565b60405180910390a16109e485858585610ed9565b5050505050565b6001600160a01b038516331480610a075750610a078533610408565b610a235760405162461bcd60e51b815260040161019f90611fad565b6109e48585858585611024565b60608151835114610a955760405162461bcd60e51b815260206004820152602960248201527f455243313135353a206163636f756e747320616e6420696473206c656e677468604482015268040dad2e6dac2e8c6d60bb1b606482015260840161019f565b6000835167ffffffffffffffff811115610ab157610ab1611937565b604051908082528060200260200182016040528015610ada578160200160208202803683370190505b50905060005b8451811015610b5257610b25858281518110610afe57610afe611ee2565b6020026020010151858381518110610b1857610b18611ee2565b6020026020010151610476565b828281518110610b3757610b37611ee2565b6020908102919091010152610b4b81611f4b565b9050610ae0565b509392505050565b610b626111c0565b610b6a61121a565b604080516001600160a01b03831681524760208201527f884edad9ce6fa2440d8a54cc123490eb96d2768479d49ff9c7366125a9424364910160405180910390a16000816001600160a01b03164760405160006040518083038185875af1925050503d8060008114610bf8576040519150601f19603f3d011682016040523d82523d6000602084013e610bfd565b606091505b5050905080610c425760405162461bcd60e51b81526020600482015260116024820152704572726f72206f6e20776974686472617760781b604482015260640161019f565b50610c4d6001600455565b50565b6005805461056790611dce565b610c656111c0565b610c6f6000611273565b565b610c7c3383836112c5565b5050565b60078181548110610c9057600080fd5b600091825260209091200154905081565b60098181548110610c9057600080fd5b6001600160a01b038516331480610ccd5750610ccd8533610408565b610ce95760405162461bcd60e51b815260040161019f90611fad565b6109e485858585856113a5565b610cfe6111c0565b6001600160a01b038116610d635760405162461bcd60e51b815260206004820152602660248201527f4f776e61626c653a206e6577206f776e657220697320746865207a65726f206160448201526564647265737360d01b606482015260840161019f565b610c4d81611273565b60606000610d79836114cf565b600101905060008167ffffffffffffffff811115610d9957610d99611937565b6040519080825280601f01601f191660200182016040528015610dc3576020820181803683370190505b5090508181016020015b600019016f181899199a1a9b1b9c1cb0b131b232b360811b600a86061a8153600a8504945084610dcd57509392505050565b6001600160a01b038416610e255760405162461bcd60e51b815260040161019f90611ffb565b336000610e31856115a7565b90506000610e3e856115a7565b90506000868152602081815260408083206001600160a01b038b16845290915281208054879290610e70908490611f38565b909155505060408051878152602081018790526001600160a01b03808a1692600092918716917fc3d58168c5ae7397731d063d5bbf3d657854427343f4c083240f7aacaa2d0f62910160405180910390a4610ed0836000898989896115f2565b50505050505050565b6001600160a01b038416610eff5760405162461bcd60e51b815260040161019f90611ffb565b8151835114610f205760405162461bcd60e51b815260040161019f9061203c565b3360005b8451811015610fbc57838181518110610f3f57610f3f611ee2565b6020026020010151600080878481518110610f5c57610f5c611ee2565b602002602001015181526020019081526020016000206000886001600160a01b03166001600160a01b031681526020019081526020016000206000828254610fa49190611f38565b90915550819050610fb481611f4b565b915050610f24565b50846001600160a01b031660006001600160a01b0316826001600160a01b03167f4a39dc06d4c0dbc64b70af90fd698a233a518aa5d07e595d983b8c0526c8f7fb878760405161100d929190612084565b60405180910390a46109e48160008787878761174d565b81518351146110455760405162461bcd60e51b815260040161019f9061203c565b6001600160a01b03841661106b5760405162461bcd60e51b815260040161019f906120a9565b3360005b845181101561115257600085828151811061108c5761108c611ee2565b6020026020010151905060008583815181106110aa576110aa611ee2565b602090810291909101810151600084815280835260408082206001600160a01b038e1683529093529190912054909150818110156110fa5760405162461bcd60e51b815260040161019f906120ee565b6000838152602081815260408083206001600160a01b038e8116855292528083208585039055908b16825281208054849290611137908490611f38565b925050819055505050508061114b90611f4b565b905061106f565b50846001600160a01b0316866001600160a01b0316826001600160a01b03167f4a39dc06d4c0dbc64b70af90fd698a233a518aa5d07e595d983b8c0526c8f7fb87876040516111a2929190612084565b60405180910390a46111b881878787878761174d565b505050505050565b6003546001600160a01b03163314610c6f5760405162461bcd60e51b815260206004820181905260248201527f4f776e61626c653a2063616c6c6572206973206e6f7420746865206f776e6572604482015260640161019f565b60026004540361126c5760405162461bcd60e51b815260206004820152601f60248201527f5265656e7472616e637947756172643a207265656e7472616e742063616c6c00604482015260640161019f565b6002600455565b600380546001600160a01b038381166001600160a01b0319831681179093556040519116919082907f8be0079c531659141344cd1fd0a4f28419497f9722a3daafe3b4186f6b6457e090600090a35050565b816001600160a01b0316836001600160a01b0316036113385760405162461bcd60e51b815260206004820152602960248201527f455243313135353a2073657474696e6720617070726f76616c20737461747573604482015268103337b91039b2b63360b91b606482015260840161019f565b6001600160a01b03838116600081815260016020908152604080832094871680845294825291829020805460ff191686151590811790915591519182527f17307eab39ab6107e8899845ad3d59bd9653f200f220920489ca2b5937696c31910160405180910390a3505050565b6001600160a01b0384166113cb5760405162461bcd60e51b815260040161019f906120a9565b3360006113d7856115a7565b905060006113e4856115a7565b90506000868152602081815260408083206001600160a01b038c168452909152902054858110156114275760405162461bcd60e51b815260040161019f906120ee565b6000878152602081815260408083206001600160a01b038d8116855292528083208985039055908a16825281208054889290611464908490611f38565b909155505060408051888152602081018890526001600160a01b03808b16928c821692918816917fc3d58168c5ae7397731d063d5bbf3d657854427343f4c083240f7aacaa2d0f62910160405180910390a46114c4848a8a8a8a8a6115f2565b505050505050505050565b60008072184f03e93ff9f4daa797ed6e38ed64bf6a1f0160401b831061150e5772184f03e93ff9f4daa797ed6e38ed64bf6a1f0160401b830492506040015b6d04ee2d6d415b85acef8100000000831061153a576d04ee2d6d415b85acef8100000000830492506020015b662386f26fc10000831061155857662386f26fc10000830492506010015b6305f5e1008310611570576305f5e100830492506008015b612710831061158457612710830492506004015b60648310611596576064830492506002015b600a83106105045760010192915050565b604080516001808252818301909252606091600091906020808301908036833701905050905082816000815181106115e1576115e1611ee2565b602090810291909101015292915050565b6001600160a01b0384163b156111b85760405163f23a6e6160e01b81526001600160a01b0385169063f23a6e61906116369089908990889088908890600401612138565b6020604051808303816000875af1925050508015611671575060408051601f3d908101601f1916820190925261166e91810190612172565b60015b61171d5761167d61218f565b806308c379a0036116b657506116916121ab565b8061169c57506116b8565b8060405162461bcd60e51b815260040161019f91906118d8565b505b60405162461bcd60e51b815260206004820152603460248201527f455243313135353a207472616e7366657220746f206e6f6e2d455243313135356044820152732932b1b2b4bb32b91034b6b83632b6b2b73a32b960611b606482015260840161019f565b6001600160e01b0319811663f23a6e6160e01b14610ed05760405162461bcd60e51b815260040161019f90612235565b6001600160a01b0384163b156111b85760405163bc197c8160e01b81526001600160a01b0385169063bc197c8190611791908990899088908890889060040161227d565b6020604051808303816000875af19250505080156117cc575060408051601f3d908101601f191682019092526117c991810190612172565b60015b6117d85761167d61218f565b6001600160e01b0319811663bc197c8160e01b14610ed05760405162461bcd60e51b815260040161019f90612235565b80356001600160a01b038116811461181f57600080fd5b919050565b6000806040838503121561183757600080fd5b61184083611808565b946020939093013593505050565b6001600160e01b031981168114610c4d57600080fd5b60006020828403121561187657600080fd5b81356118818161184e565b9392505050565b60005b838110156118a357818101518382015260200161188b565b50506000910152565b600081518084526118c4816020860160208601611888565b601f01601f19169290920160200192915050565b60208152600061188160208301846118ac565b6000602082840312156118fd57600080fd5b5035919050565b60008060006060848603121561191957600080fd5b61192284611808565b95602085013595506040909401359392505050565b634e487b7160e01b600052604160045260246000fd5b601f8201601f1916810167ffffffffffffffff8111828210171561197357611973611937565b6040525050565b600067ffffffffffffffff82111561199457611994611937565b5060051b60200190565b600082601f8301126119af57600080fd5b813560206119bc8261197a565b6040516119c9828261194d565b83815260059390931b85018201928281019150868411156119e957600080fd5b8286015b84811015611a0457803583529183019183016119ed565b509695505050505050565b600082601f830112611a2057600080fd5b813567ffffffffffffffff811115611a3a57611a3a611937565b604051611a51601f8301601f19166020018261194d565b818152846020838601011115611a6657600080fd5b816020850160208301376000918101602001919091529392505050565b60008060008060808587031215611a9957600080fd5b611aa285611808565b9350602085013567ffffffffffffffff80821115611abf57600080fd5b611acb8883890161199e565b94506040870135915080821115611ae157600080fd5b611aed8883890161199e565b93506060870135915080821115611b0357600080fd5b50611b1087828801611a0f565b91505092959194509250565b600080600080600060a08688031215611b3457600080fd5b611b3d86611808565b9450611b4b60208701611808565b9350604086013567ffffffffffffffff80821115611b6857600080fd5b611b7489838a0161199e565b94506060880135915080821115611b8a57600080fd5b611b9689838a0161199e565b93506080880135915080821115611bac57600080fd5b50611bb988828901611a0f565b9150509295509295909350565b60008060408385031215611bd957600080fd5b823567ffffffffffffffff80821115611bf157600080fd5b818501915085601f830112611c0557600080fd5b81356020611c128261197a565b604051611c1f828261194d565b83815260059390931b8501820192828101915089841115611c3f57600080fd5b948201945b83861015611c6457611c5586611808565b82529482019490820190611c44565b96505086013592505080821115611c7a57600080fd5b50611c878582860161199e565b9150509250929050565b600081518084526020808501945080840160005b83811015611cc157815187529582019590820190600101611ca5565b509495945050505050565b6020815260006118816020830184611c91565b600060208284031215611cf157600080fd5b61188182611808565b60008060408385031215611d0d57600080fd5b611d1683611808565b915060208301358015158114611d2b57600080fd5b809150509250929050565b60008060408385031215611d4957600080fd5b611d5283611808565b9150611d6060208401611808565b90509250929050565b600080600080600060a08688031215611d8157600080fd5b611d8a86611808565b9450611d9860208701611808565b93506040860135925060608601359150608086013567ffffffffffffffff811115611dc257600080fd5b611bb988828901611a0f565b600181811c90821680611de257607f821691505b602082108103611e0257634e487b7160e01b600052602260045260246000fd5b50919050565b60008151611e1a818560208601611888565b9290920192915050565b600080845481600182811c915080831680611e4057607f831692505b60208084108203611e5f57634e487b7160e01b86526022600452602486fd5b818015611e735760018114611e8857611eb5565b60ff1986168952841515850289019650611eb5565b60008b81526020902060005b86811015611ead5781548b820152908501908301611e94565b505084890196505b505050505050611ed9611ec88286611e08565b64173539b7b760d91b815260050190565b95945050505050565b634e487b7160e01b600052603260045260246000fd5b634e487b7160e01b600052601160045260246000fd5b808202811582820484141761050457610504611ef8565b8181038181111561050457610504611ef8565b8082018082111561050457610504611ef8565b600060018201611f5d57611f5d611ef8565b5060010190565b6001600160a01b03858116825284166020820152608060408201819052600090611f9090830185611c91565b8281036060840152611fa28185611c91565b979650505050505050565b6020808252602e908201527f455243313135353a2063616c6c6572206973206e6f7420746f6b656e206f776e60408201526d195c881bdc88185c1c1c9bdd995960921b606082015260800190565b60208082526021908201527f455243313135353a206d696e7420746f20746865207a65726f206164647265736040820152607360f81b606082015260800190565b60208082526028908201527f455243313135353a2069647320616e6420616d6f756e7473206c656e677468206040820152670dad2e6dac2e8c6d60c31b606082015260800190565b6040815260006120976040830185611c91565b8281036020840152611ed98185611c91565b60208082526025908201527f455243313135353a207472616e7366657220746f20746865207a65726f206164604082015264647265737360d81b606082015260800190565b6020808252602a908201527f455243313135353a20696e73756666696369656e742062616c616e636520666f60408201526939103a3930b739b332b960b11b606082015260800190565b6001600160a01b03868116825285166020820152604081018490526060810183905260a060808201819052600090611fa2908301846118ac565b60006020828403121561218457600080fd5b81516118818161184e565b600060033d11156121a85760046000803e5060005160e01c5b90565b600060443d10156121b95790565b6040516003193d81016004833e81513d67ffffffffffffffff81602484011181841117156121e957505050505090565b82850191508151818111156122015750505050505090565b843d870101602082850101111561221b5750505050505090565b61222a6020828601018761194d565b509095945050505050565b60208082526028908201527f455243313135353a204552433131353552656365697665722072656a656374656040820152676420746f6b656e7360c01b606082015260800190565b6001600160a01b0386811682528516602082015260a0604082018190526000906122a990830186611c91565b82810360608401526122bb8186611c91565b905082810360808401526122cf81856118ac565b9897505050505050505056fea26469706673582212208d42b362f20d4f9300641a32a9ae8f26148384ab79ac51de08eaafa7c1c50c7f64736f6c63430008110033",
  "linkReferences": {},
  "deployedLinkReferences": {}
}